{
  "_format": "hh-sol-artifact-1",
  "contractName": "Ebay",
  "sourceName": "contracts/Ebay.sol",
  "abi": [
    {
      "inputs": [
        {
          "internalType": "uint256",
          "name": "",
          "type": "uint256"
        }
      ],
      "name": "auctions",
      "outputs": [
        {
          "internalType": "uint256",
          "name": "id",
          "type": "uint256"
        },
        {
          "internalType": "address",
          "name": "seller",
          "type": "address"
        },
        {
          "internalType": "string",
          "name": "name",
          "type": "string"
        },
        {
          "internalType": "string",
          "name": "description",
          "type": "string"
        },
        {
          "internalType": "uint256",
          "name": "minimumOfferPrice",
          "type": "uint256"
        },
        {
          "internalType": "uint256",
          "name": "auctionEnd",
          "type": "uint256"
        },
        {
          "internalType": "uint256",
          "name": "bestOfferId",
          "type": "uint256"
        }
      ],
      "stateMutability": "view",
      "type": "function"
    },
    {
      "inputs": [
        {
          "internalType": "string",
          "name": "_name",
          "type": "string"
        },
        {
          "internalType": "string",
          "name": "_description",
          "type": "string"
        },
        {
          "internalType": "uint256",
          "name": "_minimumOfferPrice",
          "type": "uint256"
        },
        {
          "internalType": "uint256",
          "name": "_duration",
          "type": "uint256"
        }
      ],
      "name": "createAuction",
      "outputs": [],
      "stateMutability": "nonpayable",
      "type": "function"
    },
    {
      "inputs": [
        {
          "internalType": "uint256",
          "name": "_auctionId",
          "type": "uint256"
        }
      ],
      "name": "createOffer",
      "outputs": [],
      "stateMutability": "payable",
      "type": "function"
    },
    {
      "inputs": [],
      "name": "getAllOffers",
      "outputs": [
        {
          "components": [
            {
              "internalType": "uint256",
              "name": "id",
              "type": "uint256"
            },
            {
              "internalType": "uint256",
              "name": "auctionId",
              "type": "uint256"
            },
            {
              "internalType": "address",
              "name": "buyer",
              "type": "address"
            },
            {
              "internalType": "uint256",
              "name": "offerPrice",
              "type": "uint256"
            }
          ],
          "internalType": "struct Ebay.Offer[]",
          "name": "",
          "type": "tuple[]"
        }
      ],
      "stateMutability": "view",
      "type": "function"
    },
    {
      "inputs": [
        {
          "internalType": "uint256",
          "name": "_auctionId",
          "type": "uint256"
        }
      ],
      "name": "getAuctionOffers",
      "outputs": [
        {
          "components": [
            {
              "internalType": "uint256",
              "name": "id",
              "type": "uint256"
            },
            {
              "internalType": "uint256",
              "name": "auctionId",
              "type": "uint256"
            },
            {
              "internalType": "address",
              "name": "buyer",
              "type": "address"
            },
            {
              "internalType": "uint256",
              "name": "offerPrice",
              "type": "uint256"
            }
          ],
          "internalType": "struct Ebay.Offer[]",
          "name": "",
          "type": "tuple[]"
        }
      ],
      "stateMutability": "view",
      "type": "function"
    },
    {
      "inputs": [],
      "name": "getAuctions",
      "outputs": [
        {
          "components": [
            {
              "internalType": "uint256",
              "name": "id",
              "type": "uint256"
            },
            {
              "internalType": "address",
              "name": "seller",
              "type": "address"
            },
            {
              "internalType": "string",
              "name": "name",
              "type": "string"
            },
            {
              "internalType": "string",
              "name": "description",
              "type": "string"
            },
            {
              "internalType": "uint256",
              "name": "minimumOfferPrice",
              "type": "uint256"
            },
            {
              "internalType": "uint256",
              "name": "auctionEnd",
              "type": "uint256"
            },
            {
              "internalType": "uint256",
              "name": "bestOfferId",
              "type": "uint256"
            },
            {
              "internalType": "uint256[]",
              "name": "offerIds",
              "type": "uint256[]"
            }
          ],
          "internalType": "struct Ebay.Auction[]",
          "name": "",
          "type": "tuple[]"
        }
      ],
      "stateMutability": "view",
      "type": "function"
    },
    {
      "inputs": [
        {
          "internalType": "address",
          "name": "_user",
          "type": "address"
        }
      ],
      "name": "getUserAuctions",
      "outputs": [
        {
          "components": [
            {
              "internalType": "uint256",
              "name": "id",
              "type": "uint256"
            },
            {
              "internalType": "address",
              "name": "seller",
              "type": "address"
            },
            {
              "internalType": "string",
              "name": "name",
              "type": "string"
            },
            {
              "internalType": "string",
              "name": "description",
              "type": "string"
            },
            {
              "internalType": "uint256",
              "name": "minimumOfferPrice",
              "type": "uint256"
            },
            {
              "internalType": "uint256",
              "name": "auctionEnd",
              "type": "uint256"
            },
            {
              "internalType": "uint256",
              "name": "bestOfferId",
              "type": "uint256"
            },
            {
              "internalType": "uint256[]",
              "name": "offerIds",
              "type": "uint256[]"
            }
          ],
          "internalType": "struct Ebay.Auction[]",
          "name": "",
          "type": "tuple[]"
        }
      ],
      "stateMutability": "view",
      "type": "function"
    },
    {
      "inputs": [
        {
          "internalType": "address",
          "name": "_user",
          "type": "address"
        }
      ],
      "name": "getUserOffers",
      "outputs": [
        {
          "components": [
            {
              "internalType": "uint256",
              "name": "id",
              "type": "uint256"
            },
            {
              "internalType": "uint256",
              "name": "auctionId",
              "type": "uint256"
            },
            {
              "internalType": "address",
              "name": "buyer",
              "type": "address"
            },
            {
              "internalType": "uint256",
              "name": "offerPrice",
              "type": "uint256"
            }
          ],
          "internalType": "struct Ebay.Offer[]",
          "name": "",
          "type": "tuple[]"
        }
      ],
      "stateMutability": "view",
      "type": "function"
    },
    {
      "inputs": [
        {
          "internalType": "uint256",
          "name": "",
          "type": "uint256"
        }
      ],
      "name": "offers",
      "outputs": [
        {
          "internalType": "uint256",
          "name": "id",
          "type": "uint256"
        },
        {
          "internalType": "uint256",
          "name": "auctionId",
          "type": "uint256"
        },
        {
          "internalType": "address",
          "name": "buyer",
          "type": "address"
        },
        {
          "internalType": "uint256",
          "name": "offerPrice",
          "type": "uint256"
        }
      ],
      "stateMutability": "view",
      "type": "function"
    },
    {
      "inputs": [
        {
          "internalType": "uint256",
          "name": "_auctionId",
          "type": "uint256"
        }
      ],
      "name": "trade",
      "outputs": [],
      "stateMutability": "nonpayable",
      "type": "function"
    }
  ],
  "bytecode": "0x608060405260018055600160035534801561001957600080fd5b506124e9806100296000396000f3fe6080604052600436106100915760003560e01c8063a269993d11610059578063a269993d146101aa578063c43ede15146101c6578063d7c0691914610203578063df1dd8261461022e578063ff3ad0b41461025757610091565b8063571a26a01461009657806361e2db55146100d9578063661d2c2c146101025780638a72ea6a1461013f578063a16552781461017f575b600080fd5b3480156100a257600080fd5b506100bd60048036038101906100b891906118b8565b610294565b6040516100d097969594939291906119ce565b60405180910390f35b3480156100e557600080fd5b5061010060048036038101906100fb9190611ab0565b610406565b005b34801561010e57600080fd5b5061012960048036038101906101249190611b83565b610737565b6040516101369190611cd2565b60405180910390f35b34801561014b57600080fd5b50610166600480360381019061016191906118b8565b6108d8565b6040516101769493929190611cf4565b60405180910390f35b34801561018b57600080fd5b50610194610928565b6040516101a19190611cd2565b60405180910390f35b6101c460048036038101906101bf91906118b8565b610a76565b005b3480156101d257600080fd5b506101ed60048036038101906101e891906118b8565b610d08565b6040516101fa9190611cd2565b60405180910390f35b34801561020f57600080fd5b50610218610ed7565b6040516102259190611fb2565b60405180910390f35b34801561023a57600080fd5b50610255600480360381019061025091906118b8565b6111ac565b005b34801561026357600080fd5b5061027e60048036038101906102799190611b83565b6113c8565b60405161028b9190611fb2565b60405180910390f35b60006020528060005260406000206000915090508060000154908060010160009054906101000a900473ffffffffffffffffffffffffffffffffffffffff16908060020180546102e390612003565b80601f016020809104026020016040519081016040528092919081815260200182805461030f90612003565b801561035c5780601f106103315761010080835404028352916020019161035c565b820191906000526020600020905b81548152906001019060200180831161033f57829003601f168201915b50505050509080600301805461037190612003565b80601f016020809104026020016040519081016040528092919081815260200182805461039d90612003565b80156103ea5780601f106103bf576101008083540402835291602001916103ea565b820191906000526020600020905b8154815290600101906020018083116103cd57829003601f168201915b5050505050908060040154908060050154908060060154905087565b60008211610449576040517f08c379a0000000000000000000000000000000000000000000000000000000008152600401610440906120a6565b60405180910390fd5b62015180811015801561045f5750620d2f008111155b61049e576040517f08c379a000000000000000000000000000000000000000000000000000000000815260040161049590612138565b60405180910390fd5b60008067ffffffffffffffff8111156104ba576104b9612158565b5b6040519080825280602002602001820160405280156104e85781602001602082028036833780820191505090505b50905060405180610100016040528060015481526020013373ffffffffffffffffffffffffffffffffffffffff16815260200188888080601f016020809104026020016040519081016040528093929190818152602001838380828437600081840152601f19601f82011690508083019250505050505050815260200186868080601f016020809104026020016040519081016040528093929190818152602001838380828437600081840152601f19601f82011690508083019250505050505050815260200184815260200183426105c191906121b6565b8152602001600081526020018281525060008060015481526020019081526020016000206000820151816000015560208201518160010160006101000a81548173ffffffffffffffffffffffffffffffffffffffff021916908373ffffffffffffffffffffffffffffffffffffffff16021790555060408201518160020190805190602001906106529291906116ef565b50606082015181600301908051906020019061066f9291906116ef565b506080820151816004015560a0820151816005015560c0820151816006015560e08201518160070190805190602001906106aa929190611775565b50905050600460003373ffffffffffffffffffffffffffffffffffffffff1673ffffffffffffffffffffffffffffffffffffffff1681526020019081526020016000206001549080600181540180825580915050600190039060005260206000200160009091909190915055600160008154809291906107299061220c565b919050555050505050505050565b60606000600560008473ffffffffffffffffffffffffffffffffffffffff1673ffffffffffffffffffffffffffffffffffffffff16815260200190815260200160002090506000818054905067ffffffffffffffff81111561079c5761079b612158565b5b6040519080825280602002602001820160405280156107d557816020015b6107c26117c2565b8152602001906001900390816107ba5790505b50905060005b82805490508110156108cd5760008382815481106107fc576107fb612254565b5b906000526020600020015490506002600082815260200190815260200160002060405180608001604052908160008201548152602001600182015481526020016002820160009054906101000a900473ffffffffffffffffffffffffffffffffffffffff1673ffffffffffffffffffffffffffffffffffffffff1673ffffffffffffffffffffffffffffffffffffffff1681526020016003820154815250508383815181106108ae576108ad612254565b5b60200260200101819052505080806108c59061220c565b9150506107db565b508092505050919050565b60026020528060005260406000206000915090508060000154908060010154908060020160009054906101000a900473ffffffffffffffffffffffffffffffffffffffff16908060030154905084565b60606000600354905060008167ffffffffffffffff81111561094d5761094c612158565b5b60405190808252806020026020018201604052801561098657816020015b6109736117c2565b81526020019060019003908161096b5790505b5090506000600190505b60018361099d9190612283565b811015610a6d5760006002600083815260200190815260200160002090508060405180608001604052908160008201548152602001600182015481526020016002820160009054906101000a900473ffffffffffffffffffffffffffffffffffffffff1673ffffffffffffffffffffffffffffffffffffffff1673ffffffffffffffffffffffffffffffffffffffff168152602001600382015481525050838381518110610a4e57610a4d612254565b5b6020026020010181905250508080610a659061220c565b915050610990565b50809250505090565b80600081118015610a88575060015481105b610ac7576040517f08c379a0000000000000000000000000000000000000000000000000000000008152600401610abe90612303565b60405180910390fd5b6000806000848152602001908152602001600020905080600501544210610b23576040517f08c379a0000000000000000000000000000000000000000000000000000000008152600401610b1a9061236f565b60405180910390fd5b60006002600083600601548152602001908152602001600020905081600401543410158015610b555750806003015434115b610b94576040517f08c379a0000000000000000000000000000000000000000000000000000000008152600401610b8b90612427565b60405180910390fd5b6003548260060181905550604051806080016040528060035481526020018581526020013373ffffffffffffffffffffffffffffffffffffffff16815260200134815250600260006003548152602001908152602001600020600082015181600001556020820151816001015560408201518160020160006101000a81548173ffffffffffffffffffffffffffffffffffffffff021916908373ffffffffffffffffffffffffffffffffffffffff16021790555060608201518160030155905050816007016003549080600181540180825580915050600190039060005260206000200160009091909190915055600560003373ffffffffffffffffffffffffffffffffffffffff1673ffffffffffffffffffffffffffffffffffffffff168152602001908152602001600020600354908060018154018082558091505060019003906000526020600020016000909190919091505560036000815480929190610cfd9061220c565b919050555050505050565b606081600081118015610d1c575060015481105b610d5b576040517f08c379a0000000000000000000000000000000000000000000000000000000008152600401610d5290612303565b60405180910390fd5b6000806000858152602001908152602001600020905060008160070190506000818054905067ffffffffffffffff811115610d9957610d98612158565b5b604051908082528060200260200182016040528015610dd257816020015b610dbf6117c2565b815260200190600190039081610db75790505b50905060005b8280549050811015610eca576000838281548110610df957610df8612254565b5b906000526020600020015490506002600082815260200190815260200160002060405180608001604052908160008201548152602001600182015481526020016002820160009054906101000a900473ffffffffffffffffffffffffffffffffffffffff1673ffffffffffffffffffffffffffffffffffffffff1673ffffffffffffffffffffffffffffffffffffffff168152602001600382015481525050838381518110610eab57610eaa612254565b5b6020026020010181905250508080610ec29061220c565b915050610dd8565b5080945050505050919050565b6060600060018054610ee99190612283565b67ffffffffffffffff811115610f0257610f01612158565b5b604051908082528060200260200182016040528015610f3b57816020015b610f28611800565b815260200190600190039081610f205790505b5090506000600190505b6001548110156111a45760008082815260200190815260200160002060405180610100016040529081600082015481526020016001820160009054906101000a900473ffffffffffffffffffffffffffffffffffffffff1673ffffffffffffffffffffffffffffffffffffffff1673ffffffffffffffffffffffffffffffffffffffff168152602001600282018054610fdd90612003565b80601f016020809104026020016040519081016040528092919081815260200182805461100990612003565b80156110565780601f1061102b57610100808354040283529160200191611056565b820191906000526020600020905b81548152906001019060200180831161103957829003601f168201915b5050505050815260200160038201805461106f90612003565b80601f016020809104026020016040519081016040528092919081815260200182805461109b90612003565b80156110e85780601f106110bd576101008083540402835291602001916110e8565b820191906000526020600020905b8154815290600101906020018083116110cb57829003601f168201915b505050505081526020016004820154815260200160058201548152602001600682015481526020016007820180548060200260200160405190810160405280929190818152602001828054801561115e57602002820191906000526020600020905b81548152602001906001019080831161114a575b505050505081525050826001836111759190612283565b8151811061118657611185612254565b5b6020026020010181905250808061119c9061220c565b915050610f45565b508091505090565b806000811180156111be575060015481105b6111fd576040517f08c379a00000000000000000000000000000000000000000000000000000000081526004016111f490612303565b60405180910390fd5b6000806000848152602001908152602001600020905060006002600083600601548152602001908152602001600020905081600501544211611274576040517f08c379a000000000000000000000000000000000000000000000000000000000815260040161126b90612493565b60405180910390fd5b60005b826007018054905081101561135257600083600701828154811061129e5761129d612254565b5b9060005260206000200154905060006002600083815260200190815260200160002090508360000154821461133d578060020160009054906101000a900473ffffffffffffffffffffffffffffffffffffffff1673ffffffffffffffffffffffffffffffffffffffff166108fc82600301549081150290604051600060405180830381858888f1935050505015801561133b573d6000803e3d6000fd5b505b5050808061134a9061220c565b915050611277565b508160010160009054906101000a900473ffffffffffffffffffffffffffffffffffffffff1673ffffffffffffffffffffffffffffffffffffffff166108fc82600301549081150290604051600060405180830381858888f193505050501580156113c1573d6000803e3d6000fd5b5050505050565b60606000600460008473ffffffffffffffffffffffffffffffffffffffff1673ffffffffffffffffffffffffffffffffffffffff16815260200190815260200160002090506000818054905067ffffffffffffffff81111561142d5761142c612158565b5b60405190808252806020026020018201604052801561146657816020015b611453611800565b81526020019060019003908161144b5790505b50905060005b82805490508110156116e457600083828154811061148d5761148c612254565b5b9060005260206000200154905060008082815260200190815260200160002060405180610100016040529081600082015481526020016001820160009054906101000a900473ffffffffffffffffffffffffffffffffffffffff1673ffffffffffffffffffffffffffffffffffffffff1673ffffffffffffffffffffffffffffffffffffffff16815260200160028201805461152890612003565b80601f016020809104026020016040519081016040528092919081815260200182805461155490612003565b80156115a15780601f10611576576101008083540402835291602001916115a1565b820191906000526020600020905b81548152906001019060200180831161158457829003601f168201915b505050505081526020016003820180546115ba90612003565b80601f01602080910402602001604051908101604052809291908181526020018280546115e690612003565b80156116335780601f1061160857610100808354040283529160200191611633565b820191906000526020600020905b81548152906001019060200180831161161657829003601f168201915b50505050508152602001600482015481526020016005820154815260200160068201548152602001600782018054806020026020016040519081016040528092919081815260200182805480156116a957602002820191906000526020600020905b815481526020019060010190808311611695575b5050505050815250508383815181106116c5576116c4612254565b5b60200260200101819052505080806116dc9061220c565b91505061146c565b508092505050919050565b8280546116fb90612003565b90600052602060002090601f01602090048101928261171d5760008555611764565b82601f1061173657805160ff1916838001178555611764565b82800160010185558215611764579182015b82811115611763578251825591602001919060010190611748565b5b509050611771919061185b565b5090565b8280548282559060005260206000209081019282156117b1579160200282015b828111156117b0578251825591602001919060010190611795565b5b5090506117be919061185b565b5090565b60405180608001604052806000815260200160008152602001600073ffffffffffffffffffffffffffffffffffffffff168152602001600081525090565b60405180610100016040528060008152602001600073ffffffffffffffffffffffffffffffffffffffff1681526020016060815260200160608152602001600081526020016000815260200160008152602001606081525090565b5b8082111561187457600081600090555060010161185c565b5090565b600080fd5b600080fd5b6000819050919050565b61189581611882565b81146118a057600080fd5b50565b6000813590506118b28161188c565b92915050565b6000602082840312156118ce576118cd611878565b5b60006118dc848285016118a3565b91505092915050565b6118ee81611882565b82525050565b600073ffffffffffffffffffffffffffffffffffffffff82169050919050565b600061191f826118f4565b9050919050565b61192f81611914565b82525050565b600081519050919050565b600082825260208201905092915050565b60005b8381101561196f578082015181840152602081019050611954565b8381111561197e576000848401525b50505050565b6000601f19601f8301169050919050565b60006119a082611935565b6119aa8185611940565b93506119ba818560208601611951565b6119c381611984565b840191505092915050565b600060e0820190506119e3600083018a6118e5565b6119f06020830189611926565b8181036040830152611a028188611995565b90508181036060830152611a168187611995565b9050611a2560808301866118e5565b611a3260a08301856118e5565b611a3f60c08301846118e5565b98975050505050505050565b600080fd5b600080fd5b600080fd5b60008083601f840112611a7057611a6f611a4b565b5b8235905067ffffffffffffffff811115611a8d57611a8c611a50565b5b602083019150836001820283011115611aa957611aa8611a55565b5b9250929050565b60008060008060008060808789031215611acd57611acc611878565b5b600087013567ffffffffffffffff811115611aeb57611aea61187d565b5b611af789828a01611a5a565b9650965050602087013567ffffffffffffffff811115611b1a57611b1961187d565b5b611b2689828a01611a5a565b94509450506040611b3989828a016118a3565b9250506060611b4a89828a016118a3565b9150509295509295509295565b611b6081611914565b8114611b6b57600080fd5b50565b600081359050611b7d81611b57565b92915050565b600060208284031215611b9957611b98611878565b5b6000611ba784828501611b6e565b91505092915050565b600081519050919050565b600082825260208201905092915050565b6000819050602082019050919050565b611be581611882565b82525050565b611bf481611914565b82525050565b608082016000820151611c106000850182611bdc565b506020820151611c236020850182611bdc565b506040820151611c366040850182611beb565b506060820151611c496060850182611bdc565b50505050565b6000611c5b8383611bfa565b60808301905092915050565b6000602082019050919050565b6000611c7f82611bb0565b611c898185611bbb565b9350611c9483611bcc565b8060005b83811015611cc5578151611cac8882611c4f565b9750611cb783611c67565b925050600181019050611c98565b5085935050505092915050565b60006020820190508181036000830152611cec8184611c74565b905092915050565b6000608082019050611d0960008301876118e5565b611d1660208301866118e5565b611d236040830185611926565b611d3060608301846118e5565b95945050505050565b600081519050919050565b600082825260208201905092915050565b6000819050602082019050919050565b600082825260208201905092915050565b6000611d8182611935565b611d8b8185611d65565b9350611d9b818560208601611951565b611da481611984565b840191505092915050565b600081519050919050565b600082825260208201905092915050565b6000819050602082019050919050565b6000611de78383611bdc565b60208301905092915050565b6000602082019050919050565b6000611e0b82611daf565b611e158185611dba565b9350611e2083611dcb565b8060005b83811015611e51578151611e388882611ddb565b9750611e4383611df3565b925050600181019050611e24565b5085935050505092915050565b600061010083016000830151611e776000860182611bdc565b506020830151611e8a6020860182611beb565b5060408301518482036040860152611ea28282611d76565b91505060608301518482036060860152611ebc8282611d76565b9150506080830151611ed16080860182611bdc565b5060a0830151611ee460a0860182611bdc565b5060c0830151611ef760c0860182611bdc565b5060e083015184820360e0860152611f0f8282611e00565b9150508091505092915050565b6000611f288383611e5e565b905092915050565b6000602082019050919050565b6000611f4882611d39565b611f528185611d44565b935083602082028501611f6485611d55565b8060005b85811015611fa05784840389528151611f818582611f1c565b9450611f8c83611f30565b925060208a01995050600181019050611f68565b50829750879550505050505092915050565b60006020820190508181036000830152611fcc8184611f3d565b905092915050565b7f4e487b7100000000000000000000000000000000000000000000000000000000600052602260045260246000fd5b6000600282049050600182168061201b57607f821691505b60208210810361202e5761202d611fd4565b5b50919050565b7f4d696e696d756d206f666665722070726963652073686f756c6420626520677260008201527f6561746572207468616e20300000000000000000000000000000000000000000602082015250565b6000612090602c83611940565b915061209b82612034565b604082019050919050565b600060208201905081810360008301526120bf81612083565b9050919050565b7f4475726174696f6e2073686f756c64206265206265747765656e203120746f2060008201527f3130206461797300000000000000000000000000000000000000000000000000602082015250565b6000612122602783611940565b915061212d826120c6565b604082019050919050565b6000602082019050818103600083015261215181612115565b9050919050565b7f4e487b7100000000000000000000000000000000000000000000000000000000600052604160045260246000fd5b7f4e487b7100000000000000000000000000000000000000000000000000000000600052601160045260246000fd5b60006121c182611882565b91506121cc83611882565b9250827fffffffffffffffffffffffffffffffffffffffffffffffffffffffffffffffff0382111561220157612200612187565b5b828201905092915050565b600061221782611882565b91507fffffffffffffffffffffffffffffffffffffffffffffffffffffffffffffffff820361224957612248612187565b5b600182019050919050565b7f4e487b7100000000000000000000000000000000000000000000000000000000600052603260045260246000fd5b600061228e82611882565b915061229983611882565b9250828210156122ac576122ab612187565b5b828203905092915050565b7f41756374696f6e20646f6573206e6f7420657869737400000000000000000000600082015250565b60006122ed601683611940565b91506122f8826122b7565b602082019050919050565b6000602082019050818103600083015261231c816122e0565b9050919050565b7f41756374696f6e20657870697265640000000000000000000000000000000000600082015250565b6000612359600f83611940565b915061236482612323565b602082019050919050565b600060208201905081810360008301526123888161234c565b9050919050565b7f50726963652073686f756c642062652067726561746572207468616e206d696e60008201527f696d756d206f6666657220707269636520616e64207468652062657374206f6660208201527f6665720000000000000000000000000000000000000000000000000000000000604082015250565b6000612411604383611940565b915061241c8261238f565b606082019050919050565b6000602082019050818103600083015261244081612404565b9050919050565b7f41756374696f6e206973207374696c6c20616374697665000000000000000000600082015250565b600061247d601783611940565b915061248882612447565b602082019050919050565b600060208201905081810360008301526124ac81612470565b905091905056fea2646970667358221220b9d89d328649d2a00542e6edfc68e260ab5513e5d8ca21f79858c9d772981fb364736f6c634300080e0033",
  "linkReferences": {},
  "deployedLinkReferences": {}
}